{
    "contractName": "EmpireToken",
    "abi": [
        {
            "inputs": [
                {
                    "internalType": "address",
                    "name": "_router",
                    "type": "address"
                },
                {
                    "internalType": "address",
                    "name": "_marketingWallet",
                    "type": "address"
                },
                {
                    "internalType": "address",
                    "name": "_teamWallet",
                    "type": "address"
                },
                {
                    "internalType": "address",
                    "name": "_bridgeVault",
                    "type": "address"
                }
            ],
            "stateMutability": "nonpayable",
            "type": "constructor"
        },
        {
            "anonymous": false,
            "inputs": [
                {
                    "indexed": true,
                    "internalType": "address",
                    "name": "owner",
                    "type": "address"
                },
                {
                    "indexed": true,
                    "internalType": "address",
                    "name": "spender",
                    "type": "address"
                },
                {
                    "indexed": false,
                    "internalType": "uint256",
                    "name": "value",
                    "type": "uint256"
                }
            ],
            "name": "Approval",
            "type": "event"
        },
        {
            "anonymous": false,
            "inputs": [
                {
                    "indexed": true,
                    "internalType": "address",
                    "name": "from",
                    "type": "address"
                },
                {
                    "indexed": false,
                    "internalType": "uint256",
                    "name": "tAmount",
                    "type": "uint256"
                }
            ],
            "name": "LogDeliver",
            "type": "event"
        },
        {
            "anonymous": false,
            "inputs": [
                {
                    "indexed": true,
                    "internalType": "address",
                    "name": "account",
                    "type": "address"
                }
            ],
            "name": "LogExcludeFromReward",
            "type": "event"
        },
        {
            "anonymous": false,
            "inputs": [
                {
                    "indexed": false,
                    "internalType": "address",
                    "name": "from",
                    "type": "address"
                },
                {
                    "indexed": false,
                    "internalType": "uint256",
                    "name": "amount",
                    "type": "uint256"
                }
            ],
            "name": "LogFallback",
            "type": "event"
        },
        {
            "anonymous": false,
            "inputs": [
                {
                    "indexed": true,
                    "internalType": "address",
                    "name": "account",
                    "type": "address"
                }
            ],
            "name": "LogIncludeInReward",
            "type": "event"
        },
        {
            "anonymous": false,
            "inputs": [
                {
                    "indexed": true,
                    "internalType": "address",
                    "name": "account",
                    "type": "address"
                },
                {
                    "indexed": false,
                    "internalType": "uint256",
                    "name": "tAmount",
                    "type": "uint256"
                }
            ],
            "name": "LogLockByBridge",
            "type": "event"
        },
        {
            "anonymous": false,
            "inputs": [
                {
                    "indexed": false,
                    "internalType": "address",
                    "name": "from",
                    "type": "address"
                },
                {
                    "indexed": false,
                    "internalType": "uint256",
                    "name": "amount",
                    "type": "uint256"
                }
            ],
            "name": "LogReceive",
            "type": "event"
        },
        {
            "anonymous": false,
            "inputs": [
                {
                    "indexed": true,
                    "internalType": "address",
                    "name": "setter",
                    "type": "address"
                },
                {
                    "indexed": false,
                    "internalType": "address",
                    "name": "pair",
                    "type": "address"
                },
                {
                    "indexed": false,
                    "internalType": "bool",
                    "name": "enabled",
                    "type": "bool"
                }
            ],
            "name": "LogSetAutomatedMarketMakerPair",
            "type": "event"
        },
        {
            "anonymous": false,
            "inputs": [
                {
                    "indexed": true,
                    "internalType": "address",
                    "name": "setter",
                    "type": "address"
                },
                {
                    "indexed": false,
                    "internalType": "address",
                    "name": "bridge",
                    "type": "address"
                }
            ],
            "name": "LogSetBridge",
            "type": "event"
        },
        {
            "anonymous": false,
            "inputs": [
                {
                    "indexed": true,
                    "internalType": "address",
                    "name": "setter",
                    "type": "address"
                },
                {
                    "indexed": false,
                    "internalType": "address",
                    "name": "burnWallet",
                    "type": "address"
                }
            ],
            "name": "LogSetBurnWallet",
            "type": "event"
        },
        {
            "anonymous": false,
            "inputs": [
                {
                    "indexed": true,
                    "internalType": "address",
                    "name": "setter",
                    "type": "address"
                },
                {
                    "components": [
                        {
                            "internalType": "uint256",
                            "name": "autoLp",
                            "type": "uint256"
                        },
                        {
                            "internalType": "uint256",
                            "name": "burn",
                            "type": "uint256"
                        },
                        {
                            "internalType": "uint256",
                            "name": "marketing",
                            "type": "uint256"
                        },
                        {
                            "internalType": "uint256",
                            "name": "tax",
                            "type": "uint256"
                        },
                        {
                            "internalType": "uint256",
                            "name": "team",
                            "type": "uint256"
                        }
                    ],
                    "indexed": false,
                    "internalType": "struct EmpireToken.BuyFee",
                    "name": "buyFee",
                    "type": "tuple"
                }
            ],
            "name": "LogSetBuyFees",
            "type": "event"
        },
        {
            "anonymous": false,
            "inputs": [
                {
                    "indexed": false,
                    "internalType": "bool",
                    "name": "enabled",
                    "type": "bool"
                }
            ],
            "name": "LogSetEnableTrading",
            "type": "event"
        },
        {
            "anonymous": false,
            "inputs": [
                {
                    "indexed": true,
                    "internalType": "address",
                    "name": "setter",
                    "type": "address"
                },
                {
                    "indexed": false,
                    "internalType": "address",
                    "name": "account",
                    "type": "address"
                },
                {
                    "indexed": false,
                    "internalType": "bool",
                    "name": "enabled",
                    "type": "bool"
                }
            ],
            "name": "LogSetExcludeFromFee",
            "type": "event"
        },
        {
            "anonymous": false,
            "inputs": [
                {
                    "indexed": true,
                    "internalType": "address",
                    "name": "setter",
                    "type": "address"
                },
                {
                    "indexed": false,
                    "internalType": "address",
                    "name": "marketingWallet",
                    "type": "address"
                }
            ],
            "name": "LogSetMarketingWallet",
            "type": "event"
        },
        {
            "anonymous": false,
            "inputs": [
                {
                    "indexed": true,
                    "internalType": "address",
                    "name": "setter",
                    "type": "address"
                },
                {
                    "indexed": false,
                    "internalType": "address",
                    "name": "router",
                    "type": "address"
                }
            ],
            "name": "LogSetRouterAddress",
            "type": "event"
        },
        {
            "anonymous": false,
            "inputs": [
                {
                    "indexed": true,
                    "internalType": "address",
                    "name": "setter",
                    "type": "address"
                },
                {
                    "components": [
                        {
                            "internalType": "uint256",
                            "name": "autoLp",
                            "type": "uint256"
                        },
                        {
                            "internalType": "uint256",
                            "name": "burn",
                            "type": "uint256"
                        },
                        {
                            "internalType": "uint256",
                            "name": "marketing",
                            "type": "uint256"
                        },
                        {
                            "internalType": "uint256",
                            "name": "tax",
                            "type": "uint256"
                        },
                        {
                            "internalType": "uint256",
                            "name": "team",
                            "type": "uint256"
                        }
                    ],
                    "indexed": false,
                    "internalType": "struct EmpireToken.SellFee",
                    "name": "sellFee",
                    "type": "tuple"
                }
            ],
            "name": "LogSetSellFees",
            "type": "event"
        },
        {
            "anonymous": false,
            "inputs": [
                {
                    "indexed": true,
                    "internalType": "address",
                    "name": "setter",
                    "type": "address"
                },
                {
                    "indexed": false,
                    "internalType": "uint256",
                    "name": "amount",
                    "type": "uint256"
                }
            ],
            "name": "LogSetSwapTokensAmount",
            "type": "event"
        },
        {
            "anonymous": false,
            "inputs": [
                {
                    "indexed": true,
                    "internalType": "address",
                    "name": "setter",
                    "type": "address"
                },
                {
                    "indexed": false,
                    "internalType": "address",
                    "name": "teamWallet",
                    "type": "address"
                }
            ],
            "name": "LogSetTeamWallet",
            "type": "event"
        },
        {
            "anonymous": false,
            "inputs": [
                {
                    "indexed": false,
                    "internalType": "uint256",
                    "name": "forMarketing",
                    "type": "uint256"
                },
                {
                    "indexed": false,
                    "internalType": "uint256",
                    "name": "forLiquidity",
                    "type": "uint256"
                },
                {
                    "indexed": false,
                    "internalType": "uint256",
                    "name": "forBurn",
                    "type": "uint256"
                },
                {
                    "indexed": false,
                    "internalType": "uint256",
                    "name": "forTeam",
                    "type": "uint256"
                }
            ],
            "name": "LogSwapAndDistribute",
            "type": "event"
        },
        {
            "anonymous": false,
            "inputs": [
                {
                    "indexed": false,
                    "internalType": "uint256",
                    "name": "tokensSwapped",
                    "type": "uint256"
                },
                {
                    "indexed": false,
                    "internalType": "uint256",
                    "name": "ethReceived",
                    "type": "uint256"
                },
                {
                    "indexed": false,
                    "internalType": "uint256",
                    "name": "tokensIntoLiqudity",
                    "type": "uint256"
                }
            ],
            "name": "LogSwapAndLiquify",
            "type": "event"
        },
        {
            "anonymous": false,
            "inputs": [
                {
                    "indexed": true,
                    "internalType": "address",
                    "name": "setter",
                    "type": "address"
                },
                {
                    "indexed": false,
                    "internalType": "bool",
                    "name": "enabled",
                    "type": "bool"
                }
            ],
            "name": "LogSwapAndLiquifyEnabledUpdated",
            "type": "event"
        },
        {
            "anonymous": false,
            "inputs": [
                {
                    "indexed": true,
                    "internalType": "address",
                    "name": "account",
                    "type": "address"
                },
                {
                    "indexed": false,
                    "internalType": "uint256",
                    "name": "tAmount",
                    "type": "uint256"
                }
            ],
            "name": "LogUnlockByBridge",
            "type": "event"
        },
        {
            "anonymous": false,
            "inputs": [
                {
                    "indexed": true,
                    "internalType": "address",
                    "name": "setter",
                    "type": "address"
                },
                {
                    "indexed": false,
                    "internalType": "address",
                    "name": "liquidityWallet",
                    "type": "address"
                }
            ],
            "name": "LogUpdateLiquidityWallet",
            "type": "event"
        },
        {
            "anonymous": false,
            "inputs": [
                {
                    "indexed": true,
                    "internalType": "address",
                    "name": "token",
                    "type": "address"
                },
                {
                    "indexed": true,
                    "internalType": "address",
                    "name": "recipient",
                    "type": "address"
                },
                {
                    "indexed": false,
                    "internalType": "uint256",
                    "name": "amount",
                    "type": "uint256"
                }
            ],
            "name": "LogWithdrawToken",
            "type": "event"
        },
        {
            "anonymous": false,
            "inputs": [
                {
                    "indexed": true,
                    "internalType": "address",
                    "name": "recipient",
                    "type": "address"
                },
                {
                    "indexed": false,
                    "internalType": "uint256",
                    "name": "tAmount",
                    "type": "uint256"
                }
            ],
            "name": "LogWithdrawal",
            "type": "event"
        },
        {
            "anonymous": false,
            "inputs": [
                {
                    "indexed": true,
                    "internalType": "address",
                    "name": "recipient",
                    "type": "address"
                },
                {
                    "indexed": false,
                    "internalType": "uint256",
                    "name": "amount",
                    "type": "uint256"
                }
            ],
            "name": "LogWithdrawalETH",
            "type": "event"
        },
        {
            "anonymous": false,
            "inputs": [
                {
                    "indexed": true,
                    "internalType": "address",
                    "name": "previousOwner",
                    "type": "address"
                },
                {
                    "indexed": true,
                    "internalType": "address",
                    "name": "newOwner",
                    "type": "address"
                }
            ],
            "name": "OwnershipTransferred",
            "type": "event"
        },
        {
            "anonymous": false,
            "inputs": [
                {
                    "indexed": true,
                    "internalType": "address",
                    "name": "from",
                    "type": "address"
                },
                {
                    "indexed": true,
                    "internalType": "address",
                    "name": "to",
                    "type": "address"
                },
                {
                    "indexed": false,
                    "internalType": "uint256",
                    "name": "value",
                    "type": "uint256"
                }
            ],
            "name": "Transfer",
            "type": "event"
        },
        {
            "stateMutability": "payable",
            "type": "fallback"
        },
        {
            "inputs": [],
            "name": "_burnFee",
            "outputs": [
                {
                    "internalType": "uint256",
                    "name": "",
                    "type": "uint256"
                }
            ],
            "stateMutability": "view",
            "type": "function"
        },
        {
            "inputs": [],
            "name": "_liquidityFee",
            "outputs": [
                {
                    "internalType": "uint256",
                    "name": "",
                    "type": "uint256"
                }
            ],
            "stateMutability": "view",
            "type": "function"
        },
        {
            "inputs": [],
            "name": "_marketingFee",
            "outputs": [
                {
                    "internalType": "uint256",
                    "name": "",
                    "type": "uint256"
                }
            ],
            "stateMutability": "view",
            "type": "function"
        },
        {
            "inputs": [],
            "name": "_taxFee",
            "outputs": [
                {
                    "internalType": "uint256",
                    "name": "",
                    "type": "uint256"
                }
            ],
            "stateMutability": "view",
            "type": "function"
        },
        {
            "inputs": [],
            "name": "_teamFee",
            "outputs": [
                {
                    "internalType": "uint256",
                    "name": "",
                    "type": "uint256"
                }
            ],
            "stateMutability": "view",
            "type": "function"
        },
        {
            "inputs": [
                {
                    "internalType": "address",
                    "name": "owner",
                    "type": "address"
                },
                {
                    "internalType": "address",
                    "name": "spender",
                    "type": "address"
                }
            ],
            "name": "allowance",
            "outputs": [
                {
                    "internalType": "uint256",
                    "name": "",
                    "type": "uint256"
                }
            ],
            "stateMutability": "view",
            "type": "function"
        },
        {
            "inputs": [
                {
                    "internalType": "address",
                    "name": "spender",
                    "type": "address"
                },
                {
                    "internalType": "uint256",
                    "name": "amount",
                    "type": "uint256"
                }
            ],
            "name": "approve",
            "outputs": [
                {
                    "internalType": "bool",
                    "name": "",
                    "type": "bool"
                }
            ],
            "stateMutability": "nonpayable",
            "type": "function"
        },
        {
            "inputs": [
                {
                    "internalType": "address",
                    "name": "",
                    "type": "address"
                }
            ],
            "name": "automatedMarketMakerPairs",
            "outputs": [
                {
                    "internalType": "bool",
                    "name": "",
                    "type": "bool"
                }
            ],
            "stateMutability": "view",
            "type": "function"
        },
        {
            "inputs": [
                {
                    "internalType": "address",
                    "name": "account",
                    "type": "address"
                }
            ],
            "name": "balanceOf",
            "outputs": [
                {
                    "internalType": "uint256",
                    "name": "",
                    "type": "uint256"
                }
            ],
            "stateMutability": "view",
            "type": "function"
        },
        {
            "inputs": [],
            "name": "bridge",
            "outputs": [
                {
                    "internalType": "address",
                    "name": "",
                    "type": "address"
                }
            ],
            "stateMutability": "view",
            "type": "function"
        },
        {
            "inputs": [],
            "name": "bridgeVault",
            "outputs": [
                {
                    "internalType": "address",
                    "name": "",
                    "type": "address"
                }
            ],
            "stateMutability": "view",
            "type": "function"
        },
        {
            "inputs": [],
            "name": "burnWallet",
            "outputs": [
                {
                    "internalType": "address",
                    "name": "",
                    "type": "address"
                }
            ],
            "stateMutability": "view",
            "type": "function"
        },
        {
            "inputs": [],
            "name": "buyFee",
            "outputs": [
                {
                    "internalType": "uint256",
                    "name": "autoLp",
                    "type": "uint256"
                },
                {
                    "internalType": "uint256",
                    "name": "burn",
                    "type": "uint256"
                },
                {
                    "internalType": "uint256",
                    "name": "marketing",
                    "type": "uint256"
                },
                {
                    "internalType": "uint256",
                    "name": "tax",
                    "type": "uint256"
                },
                {
                    "internalType": "uint256",
                    "name": "team",
                    "type": "uint256"
                }
            ],
            "stateMutability": "view",
            "type": "function"
        },
        {
            "inputs": [],
            "name": "circulatingSupply",
            "outputs": [
                {
                    "internalType": "uint256",
                    "name": "",
                    "type": "uint256"
                }
            ],
            "stateMutability": "view",
            "type": "function"
        },
        {
            "inputs": [],
            "name": "decimals",
            "outputs": [
                {
                    "internalType": "uint8",
                    "name": "",
                    "type": "uint8"
                }
            ],
            "stateMutability": "pure",
            "type": "function"
        },
        {
            "inputs": [
                {
                    "internalType": "address",
                    "name": "spender",
                    "type": "address"
                },
                {
                    "internalType": "uint256",
                    "name": "subtractedValue",
                    "type": "uint256"
                }
            ],
            "name": "decreaseAllowance",
            "outputs": [
                {
                    "internalType": "bool",
                    "name": "",
                    "type": "bool"
                }
            ],
            "stateMutability": "nonpayable",
            "type": "function"
        },
        {
            "inputs": [
                {
                    "internalType": "uint256",
                    "name": "tAmount",
                    "type": "uint256"
                }
            ],
            "name": "deliver",
            "outputs": [],
            "stateMutability": "nonpayable",
            "type": "function"
        },
        {
            "inputs": [
                {
                    "internalType": "address",
                    "name": "account",
                    "type": "address"
                }
            ],
            "name": "excludeFromReward",
            "outputs": [],
            "stateMutability": "nonpayable",
            "type": "function"
        },
        {
            "inputs": [
                {
                    "internalType": "address",
                    "name": "account",
                    "type": "address"
                }
            ],
            "name": "includeInReward",
            "outputs": [],
            "stateMutability": "nonpayable",
            "type": "function"
        },
        {
            "inputs": [
                {
                    "internalType": "address",
                    "name": "spender",
                    "type": "address"
                },
                {
                    "internalType": "uint256",
                    "name": "addedValue",
                    "type": "uint256"
                }
            ],
            "name": "increaseAllowance",
            "outputs": [
                {
                    "internalType": "bool",
                    "name": "",
                    "type": "bool"
                }
            ],
            "stateMutability": "nonpayable",
            "type": "function"
        },
        {
            "inputs": [
                {
                    "internalType": "address",
                    "name": "account",
                    "type": "address"
                }
            ],
            "name": "isExcludedFromFee",
            "outputs": [
                {
                    "internalType": "bool",
                    "name": "",
                    "type": "bool"
                }
            ],
            "stateMutability": "view",
            "type": "function"
        },
        {
            "inputs": [
                {
                    "internalType": "address",
                    "name": "account",
                    "type": "address"
                }
            ],
            "name": "isExcludedFromReward",
            "outputs": [
                {
                    "internalType": "bool",
                    "name": "",
                    "type": "bool"
                }
            ],
            "stateMutability": "view",
            "type": "function"
        },
        {
            "inputs": [],
            "name": "isTradingEnabled",
            "outputs": [
                {
                    "internalType": "bool",
                    "name": "",
                    "type": "bool"
                }
            ],
            "stateMutability": "view",
            "type": "function"
        },
        {
            "inputs": [],
            "name": "liquidityWallet",
            "outputs": [
                {
                    "internalType": "address",
                    "name": "",
                    "type": "address"
                }
            ],
            "stateMutability": "view",
            "type": "function"
        },
        {
            "inputs": [
                {
                    "internalType": "address",
                    "name": "account",
                    "type": "address"
                },
                {
                    "internalType": "uint256",
                    "name": "tAmount",
                    "type": "uint256"
                }
            ],
            "name": "lock",
            "outputs": [],
            "stateMutability": "nonpayable",
            "type": "function"
        },
        {
            "inputs": [],
            "name": "marketingWallet",
            "outputs": [
                {
                    "internalType": "address",
                    "name": "",
                    "type": "address"
                }
            ],
            "stateMutability": "view",
            "type": "function"
        },
        {
            "inputs": [],
            "name": "name",
            "outputs": [
                {
                    "internalType": "string",
                    "name": "",
                    "type": "string"
                }
            ],
            "stateMutability": "pure",
            "type": "function"
        },
        {
            "inputs": [],
            "name": "numTokensSellToAddToLiquidity",
            "outputs": [
                {
                    "internalType": "uint256",
                    "name": "",
                    "type": "uint256"
                }
            ],
            "stateMutability": "view",
            "type": "function"
        },
        {
            "inputs": [],
            "name": "owner",
            "outputs": [
                {
                    "internalType": "address",
                    "name": "",
                    "type": "address"
                }
            ],
            "stateMutability": "view",
            "type": "function"
        },
        {
            "inputs": [
                {
                    "internalType": "uint256",
                    "name": "tAmount",
                    "type": "uint256"
                },
                {
                    "internalType": "bool",
                    "name": "deductTransferFee",
                    "type": "bool"
                }
            ],
            "name": "reflectionFromToken",
            "outputs": [
                {
                    "internalType": "uint256",
                    "name": "",
                    "type": "uint256"
                }
            ],
            "stateMutability": "view",
            "type": "function"
        },
        {
            "inputs": [],
            "name": "renounceOwnership",
            "outputs": [],
            "stateMutability": "nonpayable",
            "type": "function"
        },
        {
            "inputs": [],
            "name": "sellFee",
            "outputs": [
                {
                    "internalType": "uint256",
                    "name": "autoLp",
                    "type": "uint256"
                },
                {
                    "internalType": "uint256",
                    "name": "burn",
                    "type": "uint256"
                },
                {
                    "internalType": "uint256",
                    "name": "marketing",
                    "type": "uint256"
                },
                {
                    "internalType": "uint256",
                    "name": "tax",
                    "type": "uint256"
                },
                {
                    "internalType": "uint256",
                    "name": "team",
                    "type": "uint256"
                }
            ],
            "stateMutability": "view",
            "type": "function"
        },
        {
            "inputs": [
                {
                    "internalType": "address",
                    "name": "pair",
                    "type": "address"
                },
                {
                    "internalType": "bool",
                    "name": "enabled",
                    "type": "bool"
                }
            ],
            "name": "setAutomatedMarketMakerPair",
            "outputs": [],
            "stateMutability": "nonpayable",
            "type": "function"
        },
        {
            "inputs": [
                {
                    "internalType": "address",
                    "name": "_bridge",
                    "type": "address"
                }
            ],
            "name": "setBridge",
            "outputs": [],
            "stateMutability": "nonpayable",
            "type": "function"
        },
        {
            "inputs": [
                {
                    "internalType": "address",
                    "name": "newWallet",
                    "type": "address"
                }
            ],
            "name": "setBurnWallet",
            "outputs": [],
            "stateMutability": "nonpayable",
            "type": "function"
        },
        {
            "inputs": [
                {
                    "internalType": "uint256",
                    "name": "_lp",
                    "type": "uint256"
                },
                {
                    "internalType": "uint256",
                    "name": "_marketing",
                    "type": "uint256"
                },
                {
                    "internalType": "uint256",
                    "name": "_burn",
                    "type": "uint256"
                },
                {
                    "internalType": "uint256",
                    "name": "_tax",
                    "type": "uint256"
                },
                {
                    "internalType": "uint256",
                    "name": "_team",
                    "type": "uint256"
                }
            ],
            "name": "setBuyFees",
            "outputs": [],
            "stateMutability": "nonpayable",
            "type": "function"
        },
        {
            "inputs": [
                {
                    "internalType": "bool",
                    "name": "enable",
                    "type": "bool"
                }
            ],
            "name": "setEnableTrading",
            "outputs": [],
            "stateMutability": "nonpayable",
            "type": "function"
        },
        {
            "inputs": [
                {
                    "internalType": "address",
                    "name": "account",
                    "type": "address"
                },
                {
                    "internalType": "bool",
                    "name": "enabled",
                    "type": "bool"
                }
            ],
            "name": "setExcludeFromFee",
            "outputs": [],
            "stateMutability": "nonpayable",
            "type": "function"
        },
        {
            "inputs": [
                {
                    "internalType": "address",
                    "name": "newWallet",
                    "type": "address"
                }
            ],
            "name": "setMarketingWallet",
            "outputs": [],
            "stateMutability": "nonpayable",
            "type": "function"
        },
        {
            "inputs": [
                {
                    "internalType": "address",
                    "name": "newRouter",
                    "type": "address"
                }
            ],
            "name": "setRouterAddress",
            "outputs": [],
            "stateMutability": "nonpayable",
            "type": "function"
        },
        {
            "inputs": [
                {
                    "internalType": "uint256",
                    "name": "_lp",
                    "type": "uint256"
                },
                {
                    "internalType": "uint256",
                    "name": "_marketing",
                    "type": "uint256"
                },
                {
                    "internalType": "uint256",
                    "name": "_burn",
                    "type": "uint256"
                },
                {
                    "internalType": "uint256",
                    "name": "_tax",
                    "type": "uint256"
                },
                {
                    "internalType": "uint256",
                    "name": "_team",
                    "type": "uint256"
                }
            ],
            "name": "setSellFees",
            "outputs": [],
            "stateMutability": "nonpayable",
            "type": "function"
        },
        {
            "inputs": [
                {
                    "internalType": "bool",
                    "name": "_enabled",
                    "type": "bool"
                }
            ],
            "name": "setSwapAndLiquifyEnabled",
            "outputs": [],
            "stateMutability": "nonpayable",
            "type": "function"
        },
        {
            "inputs": [
                {
                    "internalType": "uint256",
                    "name": "amount",
                    "type": "uint256"
                }
            ],
            "name": "setSwapTokensAmount",
            "outputs": [],
            "stateMutability": "nonpayable",
            "type": "function"
        },
        {
            "inputs": [
                {
                    "internalType": "address",
                    "name": "newWallet",
                    "type": "address"
                }
            ],
            "name": "setTeamWallet",
            "outputs": [],
            "stateMutability": "nonpayable",
            "type": "function"
        },
        {
            "inputs": [],
            "name": "swapAndLiquifyEnabled",
            "outputs": [
                {
                    "internalType": "bool",
                    "name": "",
                    "type": "bool"
                }
            ],
            "stateMutability": "view",
            "type": "function"
        },
        {
            "inputs": [],
            "name": "symbol",
            "outputs": [
                {
                    "internalType": "string",
                    "name": "",
                    "type": "string"
                }
            ],
            "stateMutability": "pure",
            "type": "function"
        },
        {
            "inputs": [],
            "name": "teamWallet",
            "outputs": [
                {
                    "internalType": "address",
                    "name": "",
                    "type": "address"
                }
            ],
            "stateMutability": "view",
            "type": "function"
        },
        {
            "inputs": [
                {
                    "internalType": "uint256",
                    "name": "rAmount",
                    "type": "uint256"
                }
            ],
            "name": "tokenFromReflection",
            "outputs": [
                {
                    "internalType": "uint256",
                    "name": "",
                    "type": "uint256"
                }
            ],
            "stateMutability": "view",
            "type": "function"
        },
        {
            "inputs": [],
            "name": "totalFees",
            "outputs": [
                {
                    "internalType": "uint256",
                    "name": "",
                    "type": "uint256"
                }
            ],
            "stateMutability": "view",
            "type": "function"
        },
        {
            "inputs": [],
            "name": "totalSupply",
            "outputs": [
                {
                    "internalType": "uint256",
                    "name": "",
                    "type": "uint256"
                }
            ],
            "stateMutability": "pure",
            "type": "function"
        },
        {
            "inputs": [
                {
                    "internalType": "address",
                    "name": "recipient",
                    "type": "address"
                },
                {
                    "internalType": "uint256",
                    "name": "amount",
                    "type": "uint256"
                }
            ],
            "name": "transfer",
            "outputs": [
                {
                    "internalType": "bool",
                    "name": "",
                    "type": "bool"
                }
            ],
            "stateMutability": "nonpayable",
            "type": "function"
        },
        {
            "inputs": [
                {
                    "internalType": "address",
                    "name": "sender",
                    "type": "address"
                },
                {
                    "internalType": "address",
                    "name": "recipient",
                    "type": "address"
                },
                {
                    "internalType": "uint256",
                    "name": "amount",
                    "type": "uint256"
                }
            ],
            "name": "transferFrom",
            "outputs": [
                {
                    "internalType": "bool",
                    "name": "",
                    "type": "bool"
                }
            ],
            "stateMutability": "nonpayable",
            "type": "function"
        },
        {
            "inputs": [
                {
                    "internalType": "address",
                    "name": "newOwner",
                    "type": "address"
                }
            ],
            "name": "transferOwnership",
            "outputs": [],
            "stateMutability": "nonpayable",
            "type": "function"
        },
        {
            "inputs": [],
            "name": "uniswapV2Router",
            "outputs": [
                {
                    "internalType": "contract IUniswapV2Router02",
                    "name": "",
                    "type": "address"
                }
            ],
            "stateMutability": "view",
            "type": "function"
        },
        {
            "inputs": [
                {
                    "internalType": "address",
                    "name": "account",
                    "type": "address"
                },
                {
                    "internalType": "uint256",
                    "name": "tAmount",
                    "type": "uint256"
                }
            ],
            "name": "unlock",
            "outputs": [],
            "stateMutability": "nonpayable",
            "type": "function"
        },
        {
            "inputs": [
                {
                    "internalType": "address",
                    "name": "newLiquidityWallet",
                    "type": "address"
                }
            ],
            "name": "updateLiquidityWallet",
            "outputs": [],
            "stateMutability": "nonpayable",
            "type": "function"
        },
        {
            "inputs": [
                {
                    "internalType": "address",
                    "name": "recipient",
                    "type": "address"
                },
                {
                    "internalType": "uint256",
                    "name": "tAmount",
                    "type": "uint256"
                }
            ],
            "name": "withdraw",
            "outputs": [],
            "stateMutability": "nonpayable",
            "type": "function"
        },
        {
            "inputs": [
                {
                    "internalType": "address payable",
                    "name": "recipient",
                    "type": "address"
                },
                {
                    "internalType": "uint256",
                    "name": "amount",
                    "type": "uint256"
                }
            ],
            "name": "withdrawETH",
            "outputs": [],
            "stateMutability": "nonpayable",
            "type": "function"
        },
        {
            "inputs": [
                {
                    "internalType": "contract IERC20",
                    "name": "token",
                    "type": "address"
                },
                {
                    "internalType": "address",
                    "name": "recipient",
                    "type": "address"
                },
                {
                    "internalType": "uint256",
                    "name": "amount",
                    "type": "uint256"
                }
            ],
            "name": "withdrawToken",
            "outputs": [],
            "stateMutability": "nonpayable",
            "type": "function"
        },
        {
            "stateMutability": "payable",
            "type": "receive"
        }
    ],
    "bytecode": "60806040526200001a670de0b6b3a7640000600019620005c5565b6200002890600019620005e8565b60125560006014819055601581905560168190556017819055601855601f805461ffff60a81b1916600160b01b179055650746a52880006020553480156200006f57600080fd5b5060405162004b1138038062004b1183398101604081905262000092916200062b565b6200009d3362000442565b601254336000908152600160205260409020556001600160a01b03841615801590620000d157506001600160a01b03831615155b8015620000e657506001600160a01b03821615155b8015620000fb57506001600160a01b03811615155b6200013c5760405162461bcd60e51b815260206004820152600c60248201526b5a65726f206164647265737360a01b60448201526064015b60405180910390fd5b601980546001600160a01b0385166001600160a01b031991821617909155601a805490911661dead1790556200017a6000546001600160a01b031690565b601b80546001600160a01b039283166001600160a01b031991821617909155601c8054858416908316179055601d80548484169216821790556000908152600660209081526040808320805460ff19166001179055805163c45a015560e01b81529051889485169263c45a015592600480820193918290030181865afa15801562000209573d6000803e3d6000fd5b505050506040513d601f19601f820116820180604052508101906200022f919062000688565b6001600160a01b031663c9c6539630846001600160a01b031663ad5c46486040518163ffffffff1660e01b8152600401602060405180830381865afa1580156200027d573d6000803e3d6000fd5b505050506040513d601f19601f82011682018060405250810190620002a3919062000688565b6040516001600160e01b031960e085901b1681526001600160a01b039283166004820152911660248201526044016020604051808303816000875af1158015620002f1573d6000803e3d6000fd5b505050506040513d601f19601f8201168201806040525081019062000317919062000688565b90506200032681600162000492565b601e80546001600160a01b0319166001600160a01b0384161790553060009081526005602081905260408220805460ff1916600190811790915591620003746000546001600160a01b031690565b6001600160a01b0316815260208101919091526040016000908120805460ff1916921515929092179091556004600881905560098290556003600a8190556002600b8190556001600c819055600d93909355600e93909355600f55601091909155601155620003e03390565b6001600160a01b031660006001600160a01b03167fddf252ad1be2c89b69c2b068fc378daa952ba7f163c4a11628f55a4df523b3ef670de0b6b3a76400006040516200042e91815260200190565b60405180910390a3505050505050620006ad565b600080546001600160a01b038381166001600160a01b0319831681178455604051919092169283917f8be0079c531659141344cd1fd0a4f28419497f9722a3daafe3b4186f6b6457e09190a35050565b6000546001600160a01b03163314620004ee5760405162461bcd60e51b815260206004820181905260248201527f4f776e61626c653a2063616c6c6572206973206e6f7420746865206f776e6572604482015260640162000133565b6001600160a01b03821660009081526004602052604090205481151560ff909116151503620005605760405162461bcd60e51b815260206004820152601460248201527f5061697220416c726561647920456e61626c6564000000000000000000000000604482015260640162000133565b6001600160a01b038216600081815260046020908152604091829020805460ff191685151590811790915582519384529083015233917fac0b2958c680afbcacee16a4305170e8004cf74c8270ac3edd2abc61b919e8ea910160405180910390a25050565b600082620005e357634e487b7160e01b600052601260045260246000fd5b500690565b6000828210156200060957634e487b7160e01b600052601160045260246000fd5b500390565b80516001600160a01b03811681146200062657600080fd5b919050565b600080600080608085870312156200064257600080fd5b6200064d856200060e565b93506200065d602086016200060e565b92506200066d604086016200060e565b91506200067d606086016200060e565b905092959194509250565b6000602082840312156200069b57600080fd5b620006a6826200060e565b9392505050565b61445480620006bd6000396000f3fe6080604052600436106103905760003560e01c806359927044116101dc578063a9059cbb11610102578063c49b9a80116100a0578063e37ba8f91161006f578063e37ba8f914610b82578063e78cea9214610ba2578063f2fde38b14610bc2578063f3fef3a314610be2576103d0565b8063c49b9a8014610ae6578063d12a768814610b06578063d469801614610b1c578063dd62ed3e14610b3c576103d0565b8063b62496f5116100dc578063b62496f514610a60578063b92ebd5f14610a90578063c0b0fda214610ab0578063c1cf53c414610ac6576103d0565b8063a9059cbb14610a00578063ac03e9f014610a20578063af9549e014610a40576103d0565b806388f820201161017a57806395d89b411161014957806395d89b411461097b5780639a7a23d6146109aa5780639eb942e5146109ca578063a457c2d7146109e0576103d0565b806388f82020146108ef5780638da5cb5b146109285780638dd14802146109465780639358928b14610966576103d0565b806370a08231116101b657806370a082311461087a578063715018a61461089a57806375f0a874146108af5780637eee288d146108cf576103d0565b806359927044146108245780635d098b38146108445780636bc87c3a14610864576103d0565b80632d838119116102c157806343e716fe1161025f57806347a28b791161022e57806347a28b791461078a5780634a74bb02146107aa57806352390c02146107cb5780635342acb4146107eb576103d0565b806343e716fe146107035780634549b0391461072357806347062402146107435780634782f7791461076a576103d0565b8063395093511161029b578063395093511461068d5780633b124fe7146106ad5780633bd5d173146106c357806341cb87fc146106e3576103d0565b80632d83811914610631578063313ce567146106515780633685d4191461066d576103d0565b80631694505e1161032e57806322976e0d1161030857806322976e0d1461058c57806323b872dd146105a2578063282d3fdf146105c25780632b14ca56146105e2576103d0565b80631694505e1461053157806318160ddd146105515780631c4ba3ed1461056c576103d0565b806306fdde031161036a57806306fdde0314610495578063095ea7b3146104d257806313114a9d146104f25780631525ff7d14610511576103d0565b806301e33667146104055780630622874914610427578063064a59d014610464576103d0565b366103d057604080513381523460208201527f98c44cd71a4f8250380570aaf8bf1f0fd2a19bc3428a18a782e9e4d6c1928b1391015b60405180910390a1005b604080513381523460208201527fc04e16d4878a87a7d627a5fb8c387ac4a2169e45f86d1935cc739c196c8a571591016103c6565b34801561041157600080fd5b50610425610420366004613ee5565b610c02565b005b34801561043357600080fd5b50601a54610447906001600160a01b031681565b6040516001600160a01b0390911681526020015b60405180910390f35b34801561047057600080fd5b50601f5461048590600160b81b900460ff1681565b604051901515815260200161045b565b3480156104a157600080fd5b5060408051808201909152600b81526a22b6b834b932aa37b5b2b760a91b60208201525b60405161045b9190613f26565b3480156104de57600080fd5b506104856104ed366004613f7b565b610e61565b3480156104fe57600080fd5b506013545b60405190815260200161045b565b34801561051d57600080fd5b5061042561052c366004613fa7565b610e78565b34801561053d57600080fd5b50601e54610447906001600160a01b031681565b34801561055d57600080fd5b50670de0b6b3a7640000610503565b34801561057857600080fd5b50610425610587366004613fa7565b610f4d565b34801561059857600080fd5b5061050360175481565b3480156105ae57600080fd5b506104856105bd366004613ee5565b61101b565b3480156105ce57600080fd5b506104256105dd366004613f7b565b611099565b3480156105ee57600080fd5b50600d54600e54600f54601054601154610609949392919085565b604080519586526020860194909452928401919091526060830152608082015260a00161045b565b34801561063d57600080fd5b5061050361064c366004613fc4565b61122a565b34801561065d57600080fd5b506040516009815260200161045b565b34801561067957600080fd5b50610425610688366004613fa7565b6112ae565b34801561069957600080fd5b506104856106a8366004613f7b565b611501565b3480156106b957600080fd5b5061050360145481565b3480156106cf57600080fd5b506104256106de366004613fc4565b611537565b3480156106ef57600080fd5b506104256106fe366004613fa7565b611656565b34801561070f57600080fd5b5061042561071e366004613fc4565b611724565b34801561072f57600080fd5b5061050361073e366004613feb565b6117c2565b34801561074f57600080fd5b50600854600954600a54600b54600c54610609949392919085565b34801561077657600080fd5b50610425610785366004613f7b565b611855565b34801561079657600080fd5b506104256107a536600461401b565b611938565b3480156107b657600080fd5b50601f5461048590600160b01b900460ff1681565b3480156107d757600080fd5b506104256107e6366004613fa7565b611a36565b3480156107f757600080fd5b50610485610806366004613fa7565b6001600160a01b031660009081526005602052604090205460ff1690565b34801561083057600080fd5b50601c54610447906001600160a01b031681565b34801561085057600080fd5b5061042561085f366004613fa7565b611baf565b34801561087057600080fd5b5061050360155481565b34801561088657600080fd5b50610503610895366004613fa7565b611c7d565b3480156108a657600080fd5b50610425611cdc565b3480156108bb57600080fd5b50601954610447906001600160a01b031681565b3480156108db57600080fd5b506104256108ea366004613f7b565b611d12565b3480156108fb57600080fd5b5061048561090a366004613fa7565b6001600160a01b031660009081526006602052604090205460ff1690565b34801561093457600080fd5b506000546001600160a01b0316610447565b34801561095257600080fd5b50610425610961366004613fa7565b611ea3565b34801561097257600080fd5b50610503611f8f565b34801561098757600080fd5b50604080518082019091526006815265454d5049524560d01b60208201526104c5565b3480156109b657600080fd5b506104256109c5366004614056565b611fc2565b3480156109d657600080fd5b5061050360185481565b3480156109ec57600080fd5b506104856109fb366004613f7b565b6120b1565b348015610a0c57600080fd5b50610485610a1b366004613f7b565b612100565b348015610a2c57600080fd5b50601d54610447906001600160a01b031681565b348015610a4c57600080fd5b50610425610a5b366004614056565b61210d565b348015610a6c57600080fd5b50610485610a7b366004613fa7565b60046020526000908152604090205460ff1681565b348015610a9c57600080fd5b50610425610aab366004614084565b61221d565b348015610abc57600080fd5b5061050360165481565b348015610ad257600080fd5b50610425610ae136600461401b565b6122f9565b348015610af257600080fd5b50610425610b01366004614084565b6123e8565b348015610b1257600080fd5b5061050360205481565b348015610b2857600080fd5b50601b54610447906001600160a01b031681565b348015610b4857600080fd5b50610503610b573660046140a1565b6001600160a01b03918216600090815260036020908152604080832093909416825291909152205490565b348015610b8e57600080fd5b50610425610b9d366004613fa7565b6124b2565b348015610bae57600080fd5b50601f54610447906001600160a01b031681565b348015610bce57600080fd5b50610425610bdd366004613fa7565b6125c5565b348015610bee57600080fd5b50610425610bfd366004613f7b565b612660565b6000546001600160a01b03163314610c355760405162461bcd60e51b8152600401610c2c906140cf565b60405180910390fd5b6001600160a01b038316610c835760405162461bcd60e51b81526020600482015260156024820152742d32b9379020b2323932b9b99037b3102a37b5b2b760591b6044820152606401610c2c565b6001600160a01b038216610cd95760405162461bcd60e51b815260206004820152601960248201527f5a65726f2041646472657373206f6620526563657069656e74000000000000006044820152606401610c2c565b6040516370a0823160e01b81523060048201526001600160a01b038416906370a0823190602401602060405180830381865afa158015610d1d573d6000803e3d6000fd5b505050506040513d601f19601f82011682018060405250810190610d419190614104565b811115610d605760405162461bcd60e51b8152600401610c2c9061411d565b60405163a9059cbb60e01b81526001600160a01b0383811660048301526024820183905284169063a9059cbb906044016020604051808303816000875af1158015610daf573d6000803e3d6000fd5b505050506040513d601f19601f82011682018060405250810190610dd39190614149565b610e0f5760405162461bcd60e51b815260206004820152600d60248201526c151c985b9cd9995c8811985a5b609a1b6044820152606401610c2c565b816001600160a01b0316836001600160a01b03167f46ae78bc7b198b8b534ca0070d125569ac5f955976841c4343223079f3abf0de83604051610e5491815260200190565b60405180910390a3505050565b6000610e6e338484612836565b5060015b92915050565b6000546001600160a01b03163314610ea25760405162461bcd60e51b8152600401610c2c906140cf565b6001600160a01b038116610ec85760405162461bcd60e51b8152600401610c2c90614166565b601c546001600160a01b0390811690821603610ef65760405162461bcd60e51b8152600401610c2c9061418c565b601c80546001600160a01b0319166001600160a01b03831690811790915560405190815233907f6b23cabdb8b55d4883cb406993a5f14492a2c4c86e5ce8debed487c4dc5a45e6906020015b60405180910390a250565b6000546001600160a01b03163314610f775760405162461bcd60e51b8152600401610c2c906140cf565b6001600160a01b038116610f9d5760405162461bcd60e51b8152600401610c2c90614166565b601a546001600160a01b0390811690821603610fcb5760405162461bcd60e51b8152600401610c2c9061418c565b601a80546001600160a01b0319166001600160a01b03831690811790915560405190815233907f01431ad9e18ba4bafcaf37ece4ba2372f5ad55a533deceb2ac62bc76c8cb8cec90602001610f42565b6000611028848484612952565b61108f84336001600160a01b038716600090815260036020526040812061108a91336001600160a01b03166001600160a01b0316815260200190815260200160002054866040518060600160405280602881526020016143b260289139612b39565b612836565b5060019392505050565b601f546001600160a01b031633146110c35760405162461bcd60e51b8152600401610c2c906141b2565b6001600160a01b0382166111085760405162461bcd60e51b815260206004820152600c60248201526b5a65726f206164647265737360a01b6044820152606401610c2c565b600081116111665760405162461bcd60e51b815260206004820152602560248201527f4c6f636b20616d6f756e74206d7573742062652067726561746572207468616e604482015264207a65726f60d81b6064820152608401610c2c565b61116f82611c7d565b81111561118e5760405162461bcd60e51b8152600401610c2c9061411d565b6001600160a01b03821660009081526006602052604090205460ff166111cb57601d546111c69083906001600160a01b031683612b73565b6111e3565b601d546111e39083906001600160a01b031683612c88565b816001600160a01b03167fd67292b41a781140f5a0da0649c6028bd549f6e3335f570c31cdd202db9fc0cf8260405161121e91815260200190565b60405180910390a25050565b60006012548211156112915760405162461bcd60e51b815260206004820152602a60248201527f416d6f756e74206d757374206265206c657373207468616e20746f74616c207260448201526965666c656374696f6e7360b01b6064820152608401610c2c565b600061129b612cfb565b90506112a78382612d1e565b9392505050565b6000546001600160a01b031633146112d85760405162461bcd60e51b8152600401610c2c906140cf565b601d546001600160a01b03908116908216036113405760405162461bcd60e51b815260206004820152602160248201527f427269646765205661756c742063616e277420726563656976652072657761726044820152601960fa1b6064820152608401610c2c565b6001600160a01b03811660009081526006602052604090205460ff166113a85760405162461bcd60e51b815260206004820152601b60248201527f4163636f756e7420697320616c726561647920696e636c7564656400000000006044820152606401610c2c565b60005b6007548110156114c957816001600160a01b0316600782815481106113d2576113d26141f5565b6000918252602090912001546001600160a01b0316036114b757600780546113fc90600190614221565b8154811061140c5761140c6141f5565b600091825260209091200154600780546001600160a01b039092169183908110611438576114386141f5565b600091825260208083209190910180546001600160a01b0319166001600160a01b039485161790559184168152600282526040808220829055600690925220805460ff19169055600780548061149057611490614238565b600082815260209020810160001990810180546001600160a01b03191690550190556114c9565b806114c18161424e565b9150506113ab565b506040516001600160a01b038216907f5f05034ac7f3d648bc123a1fa9e17b8b56758b33c45ad85f418b7125cf0b9ce590600090a250565b3360008181526003602090815260408083206001600160a01b03871684529091528120549091610e6e91859061108a9086612d2a565b3360008181526006602052604090205460ff16156115ac5760405162461bcd60e51b815260206004820152602c60248201527f4578636c75646564206164647265737365732063616e6e6f742063616c6c207460448201526b3434b990333ab731ba34b7b760a11b6064820152608401610c2c565b60006115b783612d36565b505050506001600160a01b0384166000908152600160205260409020549192506115e391905082612d92565b6001600160a01b0383166000908152600160205260409020556012546116099082612d92565b6012556013546116199084612d2a565b60135560405183815233907f9745995e0db679b62281d9ca9200fed9b3cc7ee9ff131b05a3fb642b5d43dcc49060200160405180910390a2505050565b6000546001600160a01b031633146116805760405162461bcd60e51b8152600401610c2c906140cf565b6001600160a01b0381166116a65760405162461bcd60e51b8152600401610c2c90614166565b601e546001600160a01b03908116908216036116d45760405162461bcd60e51b8152600401610c2c9061418c565b601e80546001600160a01b0319166001600160a01b03831690811790915560405190815233907fac059041d07fde13bf50242296de370c33ddecff1f8ecb4d5ae0836f1ebe365d90602001610f42565b6000546001600160a01b0316331461174e5760405162461bcd60e51b8152600401610c2c906140cf565b602054810361178d5760405162461bcd60e51b815260206004820152600b60248201526a14d85b5948105b5bdd5b9d60aa1b6044820152606401610c2c565b602081815560405182815233917f9dcafbd759717e12afc2978cb500b553016b707cc2c3497e2d05f528ee7779619101610f42565b6000670de0b6b3a764000083111561181c5760405162461bcd60e51b815260206004820152601f60248201527f416d6f756e74206d757374206265206c657373207468616e20737570706c79006044820152606401610c2c565b8161183b57600061182c84612d36565b50939550610e72945050505050565b600061184684612d36565b50929550610e72945050505050565b6000546001600160a01b0316331461187f5760405162461bcd60e51b8152600401610c2c906140cf565b6001600160a01b0382166118a55760405162461bcd60e51b8152600401610c2c90614166565b30318111156118c65760405162461bcd60e51b8152600401610c2c9061411d565b6040516001600160a01b0383169082156108fc029083906000818181858888f193505050501580156118fc573d6000803e3d6000fd5b50816001600160a01b03167f4d8420592b5127331542602906f9907d197ec28af2dfd4daa72324bcfadcc6008260405161121e91815260200190565b6000546001600160a01b031633146119625760405162461bcd60e51b8152600401610c2c906140cf565b600854851480156119745750600a5484145b8015611981575060095483145b801561198e5750600b5482145b801561199b5750600c5481145b156119dd5760405162461bcd60e51b8152602060048201526012602482015271139bdd1a1a5b99c81a5cc818da185b99d95960721b6044820152606401610c2c565b6008858155600a8590556009849055600b839055600c82905560405133917f5ed6fe211f244075ad220436a1126097caaea93ebdab2a44c01339432c70aa2d91611a279190614267565b60405180910390a25050505050565b6000546001600160a01b03163314611a605760405162461bcd60e51b8152600401610c2c906140cf565b6001600160a01b03811660009081526006602052604090205460ff1615611ac95760405162461bcd60e51b815260206004820152601b60248201527f4163636f756e7420697320616c7265616479206578636c7564656400000000006044820152606401610c2c565b6001600160a01b03811660009081526001602052604090205415611b23576001600160a01b038116600090815260016020526040902054611b099061122a565b6001600160a01b0382166000908152600260205260409020555b6001600160a01b038116600081815260066020526040808220805460ff1916600190811790915560078054918201815583527fa66cc928b5edb82af9bd49922954155ab7b0942694bea4ce44661d9a8736c6880180546001600160a01b03191684179055517f4940d2d27c97c0426162178d4249cafef4a4e9ce874280d41948dc95ef4d79759190a250565b6000546001600160a01b03163314611bd95760405162461bcd60e51b8152600401610c2c906140cf565b6001600160a01b038116611bff5760405162461bcd60e51b8152600401610c2c90614166565b6019546001600160a01b0390811690821603611c2d5760405162461bcd60e51b8152600401610c2c9061418c565b601980546001600160a01b0319166001600160a01b03831690811790915560405190815233907f1f8c951d17767e852874d7e6bc407c7e0bcf18713d8d8bbf1b562740ca43a47490602001610f42565b6001600160a01b03811660009081526006602052604081205460ff1615611cba57506001600160a01b031660009081526002602052604090205490565b6001600160a01b038216600090815260016020526040902054610e729061122a565b6000546001600160a01b03163314611d065760405162461bcd60e51b8152600401610c2c906140cf565b611d106000612d9e565b565b601f546001600160a01b03163314611d3c5760405162461bcd60e51b8152600401610c2c906141b2565b6001600160a01b038216611d815760405162461bcd60e51b815260206004820152600c60248201526b5a65726f206164647265737360a01b6044820152606401610c2c565b60008111611de15760405162461bcd60e51b815260206004820152602760248201527f556e6c6f636b20616d6f756e74206d7573742062652067726561746572207468604482015266616e207a65726f60c81b6064820152608401610c2c565b601d54611df6906001600160a01b0316611c7d565b811115611e155760405162461bcd60e51b8152600401610c2c9061411d565b6001600160a01b03821660009081526006602052604090205460ff16611e5157601d54611e4c906001600160a01b03168383612dee565b611e68565b601d54611e68906001600160a01b03168383612c88565b816001600160a01b03167f6910e0daf9e4cb68a38b4c1a459b879944b8eb161a86c8f354d96e5a54faf0c08260405161121e91815260200190565b6000546001600160a01b03163314611ecd5760405162461bcd60e51b8152600401610c2c906140cf565b6001600160a01b038116611ef35760405162461bcd60e51b8152600401610c2c90614166565b601f546001600160a01b03808316911603611f3f5760405162461bcd60e51b815260206004820152600c60248201526b53616d65204272696467652160a01b6044820152606401610c2c565b601f80546001600160a01b0319166001600160a01b03831690811790915560405190815233907fd94e52c58cb5870958c05be7a6183038f705e88c54604590d15d3986cf12a2c990602001610f42565b601d546001600160a01b0316600090815260026020526040812054611fbd90670de0b6b3a764000090612d92565b905090565b6000546001600160a01b03163314611fec5760405162461bcd60e51b8152600401610c2c906140cf565b6001600160a01b03821660009081526004602052604090205481151560ff9091161515036120535760405162461bcd60e51b815260206004820152601460248201527314185a5c88105b1c9958591e48115b98589b195960621b6044820152606401610c2c565b6001600160a01b038216600081815260046020908152604091829020805460ff191685151590811790915582519384529083015233917fac0b2958c680afbcacee16a4305170e8004cf74c8270ac3edd2abc61b919e8ea910161121e565b3360008181526003602090815260408083206001600160a01b038716845282528083205481516060810190925260258083529394610e6e949093889361108a939289926143fa90830139612b39565b6000610e6e338484612952565b6000546001600160a01b031633146121375760405162461bcd60e51b8152600401610c2c906140cf565b6001600160a01b03821661215d5760405162461bcd60e51b8152600401610c2c90614166565b6001600160a01b03821660009081526005602052604090205481151560ff9091161515036121bf5760405162461bcd60e51b815260206004820152600f60248201526e105b1c9958591e48195b98589b1959608a1b6044820152606401610c2c565b6001600160a01b038216600081815260056020908152604091829020805460ff191685151590811790915582519384529083015233917f76f22305305903e16255cd5e7860e85c184833a5d910944a72f17fec284b8e1f910161121e565b6000546001600160a01b031633146122475760405162461bcd60e51b8152600401610c2c906140cf565b801515601f60179054906101000a900460ff1615150361229e5760405162461bcd60e51b8152602060048201526012602482015271416c72656164792073657420456e61626c6560701b6044820152606401610c2c565b601f805460ff60b81b1916600160b81b8315158102919091179182905560405160ff9190920416151581527f31bb29a860273cd60e45bfd8d53a143941df649ed22e5681a416fab2500c8b129060200160405180910390a150565b6000546001600160a01b031633146123235760405162461bcd60e51b8152600401610c2c906140cf565b600d54851480156123355750600f5484145b80156123425750600e5483145b801561234f575060105482145b801561235c575060115481145b1561239e5760405162461bcd60e51b8152602060048201526012602482015271139bdd1a1a5b99c81a5cc818da185b99d95960721b6044820152606401610c2c565b600d858155600f859055600e8490556010839055601182905560405133917feeafcf7f0f07b512f79535e74a0088e915295e3ba562933b8a5d5dcf4b0b535491611a279190614267565b6000546001600160a01b031633146124125760405162461bcd60e51b8152600401610c2c906140cf565b601f54600160b01b900460ff161515811515036124635760405162461bcd60e51b815260206004820152600f60248201526e105b1c9958591e48195b98589b1959608a1b6044820152606401610c2c565b601f8054821515600160b01b0260ff60b01b1990911617905560405133907fb318bd8ba266a5ee667ec4d0326bb4b0be9a30e8aadeaa85fef0cdeac50d723690610f4290841515815260200190565b6000546001600160a01b031633146124dc5760405162461bcd60e51b8152600401610c2c906140cf565b6001600160a01b0381166125025760405162461bcd60e51b8152600401610c2c90614166565b601b546001600160a01b03908116908216036125755760405162461bcd60e51b815260206004820152602c60248201527f546865206c69717569646974792077616c6c657420697320616c72656164792060448201526b74686973206164647265737360a01b6064820152608401610c2c565b601b80546001600160a01b0319166001600160a01b03831690811790915560405190815233907f99cf746968302d2ab01f9f9b0f5410586a666bb17b3fe690b309f5d6e16f6cd390602001610f42565b6000546001600160a01b031633146125ef5760405162461bcd60e51b8152600401610c2c906140cf565b6001600160a01b0381166126545760405162461bcd60e51b815260206004820152602660248201527f4f776e61626c653a206e6577206f776e657220697320746865207a65726f206160448201526564647265737360d01b6064820152608401610c2c565b61265d81612d9e565b50565b6000546001600160a01b0316331461268a5760405162461bcd60e51b8152600401610c2c906140cf565b6001600160a01b0382166126b05760405162461bcd60e51b8152600401610c2c90614166565b600081116127145760405162461bcd60e51b815260206004820152602b60248201527f5769746864726177616c20616d6f756e74206d7573742062652067726561746560448201526a72207468616e207a65726f60a81b6064820152608401610c2c565b3060009081526006602052604090205460ff16801561274c57506001600160a01b03821660009081526006602052604090205460ff16155b156127615761275c308383612dee565b6127fb565b3060009081526006602052604090205460ff1615801561279957506001600160a01b03821660009081526006602052604090205460ff165b156127a95761275c308383612b73565b3060009081526006602052604090205460ff1680156127e057506001600160a01b03821660009081526006602052604090205460ff165b156127f05761275c308383612c88565b6127fb308383612e90565b816001600160a01b03167fb4214c8c54fc7442f36d3682f59aebaf09358a4431835b30efb29d52cf9e1e918260405161121e91815260200190565b6001600160a01b0383166128985760405162461bcd60e51b8152602060048201526024808201527f45524332303a20617070726f76652066726f6d20746865207a65726f206164646044820152637265737360e01b6064820152608401610c2c565b6001600160a01b0382166128f95760405162461bcd60e51b815260206004820152602260248201527f45524332303a20617070726f766520746f20746865207a65726f206164647265604482015261737360f01b6064820152608401610c2c565b6001600160a01b0383811660008181526003602090815260408083209487168084529482529182902085905590518481527f8c5be1e5ebec7d5bd14f71427d1e84f3dd0314c0f7b2291e5b200ac8c7c3b9259101610e54565b6001600160a01b0383166129b65760405162461bcd60e51b815260206004820152602560248201527f45524332303a207472616e736665722066726f6d20746865207a65726f206164604482015264647265737360d81b6064820152608401610c2c565b6001600160a01b038216612a185760405162461bcd60e51b815260206004820152602360248201527f45524332303a207472616e7366657220746f20746865207a65726f206164647260448201526265737360e81b6064820152608401610c2c565b60008111612a7a5760405162461bcd60e51b815260206004820152602960248201527f5472616e7366657220616d6f756e74206d7573742062652067726561746572206044820152687468616e207a65726f60b81b6064820152608401610c2c565b6000612a8530611c7d565b60205490915081108015908190612aa65750601f54600160a01b900460ff16155b8015612acb57506001600160a01b03851660009081526004602052604090205460ff16155b8015612ae05750601f54600160b01b900460ff165b8015612afa5750601b546001600160a01b03868116911614155b8015612b145750601b546001600160a01b03858116911614155b15612b27576020549150612b2782612ed4565b612b3285858561304e565b5050505050565b60008184841115612b5d5760405162461bcd60e51b8152600401610c2c9190613f26565b506000612b6a8585612d92565b95945050505050565b600080600080600080612b8587612d36565b6001600160a01b038f16600090815260016020526040902054959b50939950919750955093509150612bb79087612d92565b6001600160a01b03808b16600090815260016020908152604080832094909455918b16815260029091522054612bed9084612d2a565b6001600160a01b038916600090815260026020908152604080832093909355600190522054612c1c9086612d2a565b6001600160a01b038916600090815260016020526040902055612c4289888385886132e7565b876001600160a01b0316896001600160a01b03166000805160206143da83398151915285604051612c7591815260200190565b60405180910390a3505050505050505050565b600080600080600080612c9a87612d36565b6001600160a01b038f16600090815260026020526040902054959b50939950919750955093509150612ccc9088612d92565b6001600160a01b038a16600090815260026020908152604080832093909355600190522054612bb79087612d92565b6000806000612d0861339f565b9092509050612d178282612d1e565b9250505090565b60006112a7828461429c565b60006112a782846142be565b6000806000806000806000806000806000612d508c613537565b945094509450945094506000806000612d748f88888888612d6f612cfb565b6135bb565b919f509d509b50969950949750929550505050505091939550919395565b60006112a78284614221565b600080546001600160a01b038381166001600160a01b0319831681178455604051919092169283917f8be0079c531659141344cd1fd0a4f28419497f9722a3daafe3b4186f6b6457e09190a35050565b600080600080600080612e0087612d36565b6001600160a01b038f16600090815260026020526040902054959b50939950919750955093509150612e329088612d92565b6001600160a01b038a16600090815260026020908152604080832093909355600190522054612e619087612d92565b6001600160a01b03808b1660009081526001602052604080822093909355908a1681522054612c1c9086612d2a565b600080600080600080612ea287612d36565b6001600160a01b038f16600090815260016020526040902054959b50939950919750955093509150612e619087612d92565b601f805460ff60a01b1916600160a01b179055601154600c54600e54600954600d54600854600f54600a54600097612f27979096612f219691958795919486948593849290918391612d2a565b90612d2a565b600d54600854919250600091612f3d91906142be565b90506000612f5583612f4f868561365d565b90612d1e565b9050612f6081613669565b600e54600954600091612f72916142be565b90506000612f8485612f4f888561365d565b9050612f8f816136f0565b600f54600a54600091612fa1916142be565b90506000612fb387612f4f8a8561365d565b9050612fbe81613843565b601154600c54600091612fd0916142be565b90506000612fe289612f4f8c8561365d565b9050612fed81613996565b6040805184815260208101899052908101869052606081018290527fab43d64ef8bfe74393a308a718f49af9d2f845de3bdc8f5e3cb528b4ffec85f79060800160405180910390a15050601f805460ff60a01b191690555050505050505050565b6001600160a01b03831660009081526005602052604090205460ff1615801561309057506001600160a01b03821660009081526005602052604090205460ff16155b1561319f57601f54600160b81b900460ff166130e45760405162461bcd60e51b8152602060048201526013602482015272151c98591a5b99c81a5cc8191a5cd8589b1959606a1b6044820152606401610c2c565b6001600160a01b03831660009081526004602052604090205460ff16151560010361314457601f805460ff60a81b1916600160a81b17905561313f600b54601455600854601555600a54601755600954601655600c54601855565b61319f565b6001600160a01b03821660009081526004602052604090205460ff16151560010361319f57601f805460ff60a81b1916600160a81b17905561319f601054601455600d54601555600f54601755600e54601655601154601855565b6001600160a01b03831660009081526006602052604090205460ff1680156131e057506001600160a01b03821660009081526006602052604090205460ff16155b156131f5576131f0838383612dee565b6132a1565b6001600160a01b03831660009081526006602052604090205460ff1615801561323657506001600160a01b03821660009081526006602052604090205460ff165b15613246576131f0838383612b73565b6001600160a01b03831660009081526006602052604090205460ff16801561328657506001600160a01b03821660009081526006602052604090205460ff165b15613296576131f0838383612c88565b6132a1838383612e90565b601f54600160a81b900460ff1615156001036132e257601f805460ff60a81b191690556132e260006014819055601581905560178190556016819055601855565b505050565b601f54600160a81b900460ff161515600103612b3257600061330885613ae9565b9050600061331586613b05565b9050600061332287613b21565b905061332d86613b3d565b6133378383613bc5565b61334081613b3d565b61334a8486613c6d565b306001600160a01b0389166000805160206143da8339815191528385613370888c6142be565b61337a91906142be565b61338491906142be565b60405190815260200160405180910390a35050505050505050565b6012546000908190670de0b6b3a7640000825b6007548110156134fc578260016000600784815481106133d4576133d46141f5565b60009182526020808320909101546001600160a01b03168352820192909252604001902054118061343f5750816002600060078481548110613418576134186141f5565b60009182526020808320909101546001600160a01b03168352820192909252604001902054115b1561345a57505060125493670de0b6b3a76400009350915050565b6134a06001600060078481548110613474576134746141f5565b60009182526020808320909101546001600160a01b031683528201929092526040019020548490612d92565b92506134e860026000600784815481106134bc576134bc6141f5565b60009182526020808320909101546001600160a01b031683528201929092526040019020548390612d92565b9150806134f48161424e565b9150506133b2565b5060125461351290670de0b6b3a7640000612d1e565b82101561352e57505060125492670de0b6b3a764000092509050565b90939092509050565b60008060008060008061354987613c91565b9050600061355688613cad565b9050600061356389613ae9565b905060006135708a613b05565b9050600061357d8b613b21565b905060006135958561358f8e89612d92565b90612d92565b90506135a78261358f85818589612d92565b9c959b509399509197509550919350505050565b60008080806135ca8a8661365d565b905060006135d88a8761365d565b905060006135e68a8861365d565b905060006135f48a8961365d565b905060006136028a8a61365d565b9050600061360f8f613b21565b9050600061361d828c61365d565b9050600061363382612f21868189818d8d612d2a565b905060006136418983612d92565b989b509799509597505050505050505096509650969350505050565b60006112a782846142d6565b6000613676826002612d1e565b905060006136848383612d92565b90504761369083613cc9565b600061369c4783612d92565b90506136a88382613e23565b60408051858152602081018390529081018490527f9d1cc8269ebbe9c8a971dd4c72fe5f591a00d412092c504fabeacee79732ac119060600160405180910390a15050505050565b60006136fa612cfb565b90506000613708838361365d565b601a546001600160a01b03166000908152600160205260409020549091506137309082612d2a565b601a546001600160a01b031660009081526001602052604080822092909255308152205461375e9082612d92565b30600090815260016020908152604080832093909355601a546001600160a01b0316825260069052205460ff16156137d157601a546001600160a01b03166000908152600260205260409020546137b59084612d2a565b601a546001600160a01b03166000908152600260205260409020555b3060009081526006602052604090205460ff161561381457306000908152600260205260409020546138039084612d92565b306000908152600260205260409020555b601a546040518481526001600160a01b039091169030906000805160206143da83398151915290602001610e54565b600061384d612cfb565b9050600061385b838361365d565b6019546001600160a01b03166000908152600160205260409020549091506138839082612d2a565b6019546001600160a01b03166000908152600160205260408082209290925530815220546138b19082612d92565b306000908152600160209081526040808320939093556019546001600160a01b0316825260069052205460ff1615613924576019546001600160a01b03166000908152600260205260409020546139089084612d2a565b6019546001600160a01b03166000908152600260205260409020555b3060009081526006602052604090205460ff161561396757306000908152600260205260409020546139569084612d92565b306000908152600260205260409020555b6019546040518481526001600160a01b039091169030906000805160206143da83398151915290602001610e54565b60006139a0612cfb565b905060006139ae838361365d565b601c546001600160a01b03166000908152600160205260409020549091506139d69082612d2a565b601c546001600160a01b0316600090815260016020526040808220929092553081522054613a049082612d92565b30600090815260016020908152604080832093909355601c546001600160a01b0316825260069052205460ff1615613a7757601c546001600160a01b0316600090815260026020526040902054613a5b9084612d2a565b601c546001600160a01b03166000908152600260205260409020555b3060009081526006602052604090205460ff1615613aba5730600090815260026020526040902054613aa99084612d92565b306000908152600260205260409020555b601c546040518481526001600160a01b039091169030906000805160206143da83398151915290602001610e54565b6000610e726064612f4f6017548561365d90919063ffffffff16565b6000610e726064612f4f6016548561365d90919063ffffffff16565b6000610e726064612f4f6018548561365d90919063ffffffff16565b6000613b47612cfb565b90506000613b55838361365d565b30600090815260016020526040902054909150613b729082612d2a565b3060009081526001602090815260408083209390935560069052205460ff16156132e25730600090815260026020526040902054613bb09084612d2a565b30600090815260026020526040902055505050565b6000613bcf612cfb565b90506000613bdd848361365d565b90506000613beb848461365d565b30600090815260016020526040902054909150613c0e908390612f219084612d2a565b3060009081526001602090815260408083209390935560069052205460ff1615612b3257613c3c84866142be565b30600090815260026020526040902054613c5691906142be565b306000908152600260205260409020555050505050565b601254613c7a9083612d92565b601255601354613c8a9082612d2a565b6013555050565b6000610e726064612f4f6014548561365d90919063ffffffff16565b6000610e726064612f4f6015548561365d90919063ffffffff16565b6040805160028082526060820183526000926020830190803683370190505090503081600081518110613cfe57613cfe6141f5565b6001600160a01b03928316602091820292909201810191909152601e54604080516315ab88c960e31b81529051919093169263ad5c46489260048083019391928290030181865afa158015613d57573d6000803e3d6000fd5b505050506040513d601f19601f82011682018060405250810190613d7b91906142f5565b81600181518110613d8e57613d8e6141f5565b6001600160a01b039283166020918202929092010152601e54613db49130911684612836565b601e5460405163791ac94760e01b81526001600160a01b039091169063791ac94790613ded908590600090869030904290600401614312565b600060405180830381600087803b158015613e0757600080fd5b505af1158015613e1b573d6000803e3d6000fd5b505050505050565b601e54613e3b9030906001600160a01b031684612836565b601e54601b5460405163f305d71960e01b81523060048201526024810185905260006044820181905260648201526001600160a01b0391821660848201524260a482015291169063f305d71990839060c40160606040518083038185885af1158015613eab573d6000803e3d6000fd5b50505050506040513d601f19601f82011682018060405250810190612b329190614383565b6001600160a01b038116811461265d57600080fd5b600080600060608486031215613efa57600080fd5b8335613f0581613ed0565b92506020840135613f1581613ed0565b929592945050506040919091013590565b600060208083528351808285015260005b81811015613f5357858101830151858201604001528201613f37565b81811115613f65576000604083870101525b50601f01601f1916929092016040019392505050565b60008060408385031215613f8e57600080fd5b8235613f9981613ed0565b946020939093013593505050565b600060208284031215613fb957600080fd5b81356112a781613ed0565b600060208284031215613fd657600080fd5b5035919050565b801515811461265d57600080fd5b60008060408385031215613ffe57600080fd5b82359150602083013561401081613fdd565b809150509250929050565b600080600080600060a0868803121561403357600080fd5b505083359560208501359550604085013594606081013594506080013592509050565b6000806040838503121561406957600080fd5b823561407481613ed0565b9150602083013561401081613fdd565b60006020828403121561409657600080fd5b81356112a781613fdd565b600080604083850312156140b457600080fd5b82356140bf81613ed0565b9150602083013561401081613ed0565b6020808252818101527f4f776e61626c653a2063616c6c6572206973206e6f7420746865206f776e6572604082015260600190565b60006020828403121561411657600080fd5b5051919050565b602080825260129082015271496e63756666696369656e742066756e647360701b604082015260600190565b60006020828403121561415b57600080fd5b81516112a781613fdd565b6020808252600c908201526b5a65726f204164647265737360a01b604082015260600190565b6020808252600c908201526b53616d65204164647265737360a01b604082015260600190565b60208082526023908201527f4f6e6c79206272696467652063616e20706572666f726d20746869732061637460408201526234b7b760e91b606082015260800190565b634e487b7160e01b600052603260045260246000fd5b634e487b7160e01b600052601160045260246000fd5b6000828210156142335761423361420b565b500390565b634e487b7160e01b600052603160045260246000fd5b6000600182016142605761426061420b565b5060010190565b815481526001820154602082015260028201546040820152600382015460608201526004820154608082015260a08101610e72565b6000826142b957634e487b7160e01b600052601260045260246000fd5b500490565b600082198211156142d1576142d161420b565b500190565b60008160001904831182151516156142f0576142f061420b565b500290565b60006020828403121561430757600080fd5b81516112a781613ed0565b600060a082018783526020878185015260a0604085015281875180845260c086019150828901935060005b818110156143625784516001600160a01b03168352938301939183019160010161433d565b50506001600160a01b03969096166060850152505050608001529392505050565b60008060006060848603121561439857600080fd5b835192506020840151915060408401519050925092509256fe45524332303a207472616e7366657220616d6f756e74206578636565647320616c6c6f77616e6365ddf252ad1be2c89b69c2b068fc378daa952ba7f163c4a11628f55a4df523b3ef45524332303a2064656372656173656420616c6c6f77616e63652062656c6f77207a65726fa26469706673582212203ea57de464499f81d125d2ad1fcbb50c43220656274e0970b5a9165063ab980f64736f6c634300080e0033",
    "sourcePath": "/home/rehan/Desktop/upwork/rob-labs/empire/contracts/EmpireToken.sol",
    "compiler": {
        "name": "solc",
        "version": "0.8.14+commit.80d49f37"
    },
    "functionHashes": {
        "_burnFee()": "c0b0fda2",
        "_liquidityFee()": "6bc87c3a",
        "_marketingFee()": "22976e0d",
        "_taxFee()": "3b124fe7",
        "_teamFee()": "9eb942e5",
        "allowance(address,address)": "dd62ed3e",
        "approve(address,uint256)": "095ea7b3",
        "automatedMarketMakerPairs(address)": "b62496f5",
        "balanceOf(address)": "70a08231",
        "bridge()": "e78cea92",
        "bridgeVault()": "ac03e9f0",
        "burnWallet()": "06228749",
        "buyFee()": "47062402",
        "circulatingSupply()": "9358928b",
        "decimals()": "313ce567",
        "decreaseAllowance(address,uint256)": "a457c2d7",
        "deliver(uint256)": "3bd5d173",
        "excludeFromReward(address)": "52390c02",
        "includeInReward(address)": "3685d419",
        "increaseAllowance(address,uint256)": "39509351",
        "isExcludedFromFee(address)": "5342acb4",
        "isExcludedFromReward(address)": "88f82020",
        "isTradingEnabled()": "064a59d0",
        "liquidityWallet()": "d4698016",
        "lock(address,uint256)": "282d3fdf",
        "marketingWallet()": "75f0a874",
        "name()": "06fdde03",
        "numTokensSellToAddToLiquidity()": "d12a7688",
        "owner()": "8da5cb5b",
        "reflectionFromToken(uint256,bool)": "4549b039",
        "renounceOwnership()": "715018a6",
        "sellFee()": "2b14ca56",
        "setAutomatedMarketMakerPair(address,bool)": "9a7a23d6",
        "setBridge(address)": "8dd14802",
        "setBurnWallet(address)": "1c4ba3ed",
        "setBuyFees(uint256,uint256,uint256,uint256,uint256)": "47a28b79",
        "setEnableTrading(bool)": "b92ebd5f",
        "setExcludeFromFee(address,bool)": "af9549e0",
        "setMarketingWallet(address)": "5d098b38",
        "setRouterAddress(address)": "41cb87fc",
        "setSellFees(uint256,uint256,uint256,uint256,uint256)": "c1cf53c4",
        "setSwapAndLiquifyEnabled(bool)": "c49b9a80",
        "setSwapTokensAmount(uint256)": "43e716fe",
        "setTeamWallet(address)": "1525ff7d",
        "swapAndLiquifyEnabled()": "4a74bb02",
        "symbol()": "95d89b41",
        "teamWallet()": "59927044",
        "tokenFromReflection(uint256)": "2d838119",
        "totalFees()": "13114a9d",
        "totalSupply()": "18160ddd",
        "transfer(address,uint256)": "a9059cbb",
        "transferFrom(address,address,uint256)": "23b872dd",
        "transferOwnership(address)": "f2fde38b",
        "uniswapV2Router()": "1694505e",
        "unlock(address,uint256)": "7eee288d",
        "updateLiquidityWallet(address)": "e37ba8f9",
        "withdraw(address,uint256)": "f3fef3a3",
        "withdrawETH(address,uint256)": "4782f779",
        "withdrawToken(address,address,uint256)": "01e33667"
    },
    "gasEstimates": {
        "creation": {
            "codeDepositCost": "3498400",
            "executionCost": "infinite",
            "totalCost": "infinite"
        },
        "external": {
            "": "1562",
            "_burnFee()": "2406",
            "_liquidityFee()": "2408",
            "_marketingFee()": "2363",
            "_taxFee()": "2385",
            "_teamFee()": "2406",
            "allowance(address,address)": "infinite",
            "approve(address,uint256)": "24694",
            "automatedMarketMakerPairs(address)": "2592",
            "balanceOf(address)": "infinite",
            "bridge()": "2414",
            "bridgeVault()": "2416",
            "burnWallet()": "2418",
            "buyFee()": "10915",
            "circulatingSupply()": "4748",
            "decimals()": "268",
            "decreaseAllowance(address,uint256)": "infinite",
            "deliver(uint256)": "infinite",
            "excludeFromReward(address)": "infinite",
            "includeInReward(address)": "infinite",
            "increaseAllowance(address,uint256)": "27051",
            "isExcludedFromFee(address)": "2676",
            "isExcludedFromReward(address)": "2611",
            "isTradingEnabled()": "2441",
            "liquidityWallet()": "2437",
            "lock(address,uint256)": "infinite",
            "marketingWallet()": "2438",
            "name()": "infinite",
            "numTokensSellToAddToLiquidity()": "2384",
            "owner()": "2410",
            "reflectionFromToken(uint256,bool)": "infinite",
            "renounceOwnership()": "28204",
            "sellFee()": "10937",
            "setAutomatedMarketMakerPair(address,bool)": "infinite",
            "setBridge(address)": "30447",
            "setBurnWallet(address)": "30451",
            "setBuyFees(uint256,uint256,uint256,uint256,uint256)": "136825",
            "setEnableTrading(bool)": "30084",
            "setExcludeFromFee(address,bool)": "infinite",
            "setMarketingWallet(address)": "30429",
            "setRouterAddress(address)": "30472",
            "setSellFees(uint256,uint256,uint256,uint256,uint256)": "136891",
            "setSwapAndLiquifyEnabled(bool)": "30368",
            "setSwapTokensAmount(uint256)": "28109",
            "setTeamWallet(address)": "30462",
            "swapAndLiquifyEnabled()": "2416",
            "symbol()": "infinite",
            "teamWallet()": "2395",
            "tokenFromReflection(uint256)": "infinite",
            "totalFees()": "2394",
            "totalSupply()": "283",
            "transfer(address,uint256)": "infinite",
            "transferFrom(address,address,uint256)": "infinite",
            "transferOwnership(address)": "infinite",
            "uniswapV2Router()": "2395",
            "unlock(address,uint256)": "infinite",
            "updateLiquidityWallet(address)": "30404",
            "withdraw(address,uint256)": "infinite",
            "withdrawETH(address,uint256)": "infinite",
            "withdrawToken(address,address,uint256)": "infinite"
        },
        "internal": {
            "_approve(address,address,uint256)": "infinite",
            "_getCurrentSupply()": "infinite",
            "_getRValues(uint256,uint256,uint256,uint256,uint256,uint256)": "infinite",
            "_getRate()": "infinite",
            "_getTValues(uint256)": "infinite",
            "_getValues(uint256)": "infinite",
            "_reflectFee(uint256,uint256)": "infinite",
            "_takeFee(address,uint256,uint256,uint256,uint256)": "infinite",
            "_takeLiquidity(uint256)": "infinite",
            "_takeMarketingAndBurn(uint256,uint256)": "infinite",
            "_takeTeam(uint256)": "infinite",
            "_tokenTransfer(address,address,uint256)": "infinite",
            "_transfer(address,address,uint256)": "infinite",
            "_transferBothExcluded(address,address,uint256)": "infinite",
            "_transferFromExcluded(address,address,uint256)": "infinite",
            "_transferStandard(address,address,uint256)": "infinite",
            "_transferToExcluded(address,address,uint256)": "infinite",
            "addLiquidity(uint256,uint256)": "infinite",
            "balanceCheck(uint256,uint256,string memory)": "infinite",
            "calculateBurnFee(uint256)": "infinite",
            "calculateLiquidityFee(uint256)": "infinite",
            "calculateMarketingFee(uint256)": "infinite",
            "calculateTaxFee(uint256)": "infinite",
            "calculateTeamFee(uint256)": "infinite",
            "restoreAllFee()": "infinite",
            "sendToBurn(uint256)": "infinite",
            "sendToMarketing(uint256)": "infinite",
            "sendToTeam(uint256)": "infinite",
            "setBuyFee()": "infinite",
            "setSellFee()": "infinite",
            "swapAndDistribute(uint256)": "infinite",
            "swapAndLiquify(uint256)": "infinite",
            "swapTokensForETH(uint256)": "infinite"
        }
    }
}